:020000040000FA
:06000000B5EF0BF0120049
:020006001200E6
:0600080063EF04F012009A
:06001800F7EF04F01200F6
:02001E000200DE
:10002000B8170000800000004B0000009617000089
:08003000000F00002200000097
:08003800D9CFE6FFE1CFD9FFAB
:10004000E65228DB04EC08F0030EE66E170EE66EAF
:10005000000EE66EE66AE66A11EC08F0006E050E28
:10006000E15E0050120EE66E170EE66E000EE66EB2
:10007000E66A010EE66E11EC08F0006E050EE15E18
:10008000005046EC08F0A6EC08F0DF6EDF500CE004
:10009000DF50320809E3230EDF5C06E02A0EDF5C46
:1000A00003E0300EDF5C01E1EED7DF50320A05E0FD
:1000B000030A01E004D008D802D0B0D800D0E5523D
:1000C000E552E7CFD9FF1200D9CFE6FFE1CFD9FF44
:1000D000E652E0DA04EC08F0210EE66E170EE66E4A
:1000E000000EE66EE66AE66A11EC08F0006E050E98
:1000F000E15E0050300EE66E170EE66E000EE66E04
:10010000E66A010EE66E11EC08F0006E050EE15E87
:10011000005046EC08F0A6EC08F0DF6EDF500CE073
:10012000DF50320809E3230EDF5C06E02A0EDF5CB5
:1001300003E0300EDF5C01E1EED704EC08F03F0E87
:10014000E66E170EE66E000EE66EE66AE66A11ECE3
:1001500008F0006E050EE15E005046EC08F0DF503E
:10016000320A0BE0030A01E010D0000EE66E0F0E1B
:10017000E66E10D8E552E55208D00A0EE66E0F0E74
:10018000E66E08D8E552E55200D0E552E552E7CFD9
:10019000D9FF1200D9CFE6FFE1CFD9FF020EE12649
:1001A000010EDB6A0A0EF36E010EDBCFF4FFF35093
:1001B000F45C23E2A6EC08F0DF6EDF5001E1FAD731
:1001C000010EDB50E76EFD0EDBCFE9FFFE0EDBCF4D
:1001D000EAFFE750E926000EEA22DFCFEFFFDFCF8C
:1001E000E6FF010EDBCFE6FF030EE66E2CDAE552EA
:1001F000E552E552010EDB2AD5D7000EE66E0F0E52
:10020000E66E78DAE552E552020EE15C02E2E16A5E
:10021000E552E16EE552E7CFD9FF1200D9CFE6FFF4
:10022000E1CFD9FFE652DF6A510EDF5C0AE00ED85B
:10023000DF6E510EDF5C04E0DFCFE6FFB5D8E5529C
:10024000F3D7E552E552E7CFD9FF1200D9CFE6FF49
:10025000E1CFD9FFE6521EDAB80EE66E160EE66E54
:10026000000EE66EE66AE66A11EC08F0006E050E16
:10027000E15E0050C70EE66E160EE66E000EE66EEC
:10028000E66A010EE66E11EC08F0006E050EE15E06
:100290000050D60EE66E160EE66E000EE66EE66AAC
:1002A000020EE66E11EC08F0006E050EE15E0050E5
:1002B000E50EE66E160EE66E000EE66EE66A030EBC
:1002C000E66E11EC08F0006E050EE15E005046ECA3
:1002D00008F0A6EC08F0DF6EDF5003E10F012151BA
:1002E0000CE0DF50340809E3230EDF5C06E02A0E41
:1002F000DF5C03E0300EDF5C02E120D8EAD70F01BB
:10030000215112E1C7D9F40EE66E160EE66E000E0C
:10031000E66EE66AE66A11EC08F0006E050EE15E34
:10032000005046EC08F003D0510EDF6E216BDF5019
:1003300000D0E552E552E7CFD9FF1200D9CFE6FF52
:10034000E1CFD9FF030EE126020EDB6A28D8DE6E6C
:10035000DD6ADECF00F0DDCF01F0013404E20050B1
:100360008C08000E015403E20F01010E216F030EF1
:10037000E15C02E2E16AE552E16EE552E7CFD9FFC6
:100380001200D9CFE6FFE1CFD9FFFE0EDB50040DFE
:10039000F328C26EC282E552E7CFD9FF1200C2B283
:1003A000FED7C45000D01200D9CFE6FFE1CFD9FF6D
:1003B000FE0EDB50340A27E0070A23E0010A12E0B0
:1003C000030A01E02FD0000EE66E0F0EE66E66D92E
:1003D000E552E552000EE66E0F0EE66E27D8E552A6
:1003E000E55220D0000EE66E0F0EE66E57D9E552AC
:1003F000E5520A0EE66E0F0EE66E18D8E552E5528B
:1004000011D069D80FD0000EE66E0F0EE66E46D9F9
:10041000E552E552140EE66E0F0EE66E07D8E55271
:10042000E55200D0E552E7CFD9FF1200D9CFE6FF61
:10043000E1CFD9FFE652DF6ADFCF00F00A0EE76EA8
:100440000018E8AE02D0E73402D0E750005C31E299
:10045000DFCF00F0016A00BE0168FD0EDB50002412
:10046000E96EFE0EDB500120EA6EEF50E66E77D8A3
:10047000E55233EC04F0DFCF00F0016A00BE016802
:10048000FD0EDB500024E96EFE0EDB500120EA6E0B
:10049000EF50E66EDFCFE6FF030EE66ED4D8E552EE
:1004A000E552E5520001855101E1FCD7856BDF2A59
:1004B000C3D70001855101E1FCD7856B855101E16E
:1004C000FDD7856B855101E1FDD7856BE552E5527E
:1004D000E7CFD9FF1200D9CFE6FFE1CFD9FF020E57
:1004E000E126010EDB6A0A0EF36E010EDBCFF4FF8C
:1004F000F350F45C23E2A6EC08F0DF6EDF5001E17C
:10050000FAD7DFCFE6FF2BD8E552010EDB50EA6ABF
:10051000140FE96E0F0EEA22DFCFEFFF33EC04F089
:10052000DFCFE6FF010EDBCFE6FF030EE66E8BD8D2
:10053000E552E552E552010EDB2AD5D7000EE66EF4
:100540000F0EE66ED7D8E552E552020EE15C02E2EC
:10055000E16AE552E16EE552E7CFD9FF1200D9CF4B
:10056000E6FFE1CFD9FFFE0EDB50390A59E0010A60
:1005700051E00F0A49E0010A41E0030A39E0010AAB
:1005800031E0070A29E0010A21E0030A19E0010A23
:1005900011E0130A09E0090A01E048D00F01660ED4
:1005A0001E6F510E1F6F42D00F017C0E1E6F510E39
:1005B0001F6F3CD00F01710E1E6F510E1F6F36D092
:1005C0000F01660E1E6F3A0E1F6F30D00F01710EB5
:1005D0001E6F3A0E1F6F2AD00F017C0E1E6F3A0E4F
:1005E0001F6F24D00F01660E1E6F410E1F6F1ED0AD
:1005F0000F01710E1E6F410E1F6F18D00F017C0E80
:100600001E6F410E1F6F12D00F01660E1E6F4A0E35
:100610001F6F0CD00F01710E1E6F4A0E1F6F06D098
:100620000F017C0E1E6F4A0E1F6F00D00F01010ECE
:10063000206F46EC04F00F01205101E0FCD7E55299
:10064000E7CFD9FF1200D9CFE6FFE1CFD9FF020EE5
:10065000E126FC0EDB50DF6E010EDB6AD9CFE6FF30
:10066000DACFE6FFFD0EDBCFE6FFFE0EDBCFE6FFC7
:100670002DEC08F0E552E552E552E55246EC08F063
:10068000020EE15C02E2E16AE552E16EE552E7CF7B
:10069000D9FF120033EC04F004EF08F0D9CFE6FFE5
:1006A000E1CFD9FFE652DF6ADF6ADF50006E016AF0
:1006B000220E005C000E015818E2DFCFE6FFDF508B
:1006C000E76EFD0EDBCF00F0FE0EDBCF01F0E75052
:1006D0000026000E012200C0E6FF01C0E6FF3ED862
:1006E000E552E552E552DF2AE0D7E552E552E7CF81
:1006F000D9FF1200D9CFE6FFE1CFD9FFE652DF6A7A
:10070000DF50006E016A220E005C000E015821E2EB
:10071000DFCFE6FFDF50E76EFD0EDBCF00F0FE0E11
:10072000DBCF01F0E7500026000E012200C0E6FFFB
:1007300001C0E6FF2BD8E552E552E5520001856B7A
:10074000855101E1FDD7856B855101E1FDD7DF2A98
:10075000D7D7E552E552E7CFD9FF1200D9CFE6FF50
:10076000E1CFD9FFA66AAA6AFC0EDB50A96E010E82
:10077000A66EFD0EDBCFE9FFFE0EDBCFEAFFA8CFB2
:10078000EFFFA66AE552E7CFD9FF1200D9CFE6FF07
:10079000E1CFD9FFA66AAA6AFC0EDB50A96EFD0E56
:1007A000DBCFE9FFFE0EDBCFEAFFEF50A86E040EB1
:1007B000A66EF29E550EA76EAA0EA76EA682F28EA8
:0A07C000A66AE552E7CFD9FF120048
:0607CA00D9CFE6FFE1CFEC
:1007D000D9FFE65208D847D8D3EC07F0E552E552E6
:1007E000E7CFD9FF1200D38CD38AD3889B8C080E15
:1007F000C16E010EC26E120EC06EC280958C958ABB
:100800009588938493829380958E839C839A839812
:1008100094928292949482949698D58ED59CD59AEF
:10082000D596D584D582D590FE0ED76EC00ED66EE5
:10083000F194F28ACD8ECD8ACD88CD96CD92CD80A1
:10084000FE0ECF6E0C0ECE6E9F809D90D08EF28CE1
:10085000F28EF28CBD6ECB68800EBE6ED08EF28CA6
:10086000F28EF28C1200C69A949A9488949695947B
:100870009592959083828380C688C79CC696C694BD
:10088000C692C680C68A9D969E9612000001806B15
:10089000C69A948A9486C79CC79E130EC86E280E6B
:1008A000C66EC56A9E969D86C68A9D8012009284F9
:1008B000080EC16EC09AC098C086C094C082C09015
:1008C000C09EC2801200DACFE4FFE2CFDAFFE9CFA8
:1008D000E4FFEACFE4FFE6529E909E96000180512D
:1008E000050A74E0010A6BE0070A17E0010A10E04C
:1008F000030A09E0010A01E072D0C580866B876BAC
:10090000010E806F6CD0C00EC96E020E806F67D072
:100910009D90C96A030E806F62D00F011E510001C5
:100920008125816F000E8221826FFF0E8117030ED9
:1009300082170F011F5100018325836F000E842150
:10094000846FFF0E8317030E841783C0E9FF84C0F2
:10095000EAFF040ED890EA32E932E804FBE18A0E9D
:10096000E926000EEA22EFCF10F081C0E9FF82C035
:10097000EAFF040ED890EA32E932E804FBE18A0E7D
:10098000E926000EEA22EF501024E8407F0BC96EE2
:100990000001862B000E8723D00E861902E1070E78
:1009A000871902E10F01206B0F01200504E100010E
:1009B000040E806F03D00001050E806F10D0CF6849
:1009C000F00ECE6E9D80020E806F09D0C584806BC4
:1009D000816B826B836B846B9EA6FED79E96E552DD
:1009E000E5CFEAFFE5CFE9FFE5CFDAFF1100D8CF89
:1009F000E4FFE0CFE4FFE46EDACFE4FFE2CFDAFF1A
:100A0000E9CFE4FFEACFE4FFF6CFE4FFF7CFE4FF5E
:100A1000F5CFE4FFF3CFE4FFF4CFE4FFFACFE4FF38
:100A200000EE0EF0020EE80403E3EECFE4FFFBD786
:100A300000EE00F00E0EE80403E3EECFE4FFFBD778
:100A4000E652FE0ED76EC00ED66EF2940001882BD1
:100A50000A0E885D03E1886B010E856F060EE66E57
:100A6000C1EC01F0E5520001CA2BCA51020A22E092
:100A7000030A04E08150040B3AE038D08150040BA3
:100A800001E0010EE66E8150020B01E0010EE66E00
:100A90008150010BE66E8350800B01E0010EE66E83
:100AA0006DD8E552E552E552E55283989588838AE0
:100AB000959A37D08150040B01E0010EE66E81500B
:100AC000020B01E0010EE66E8150010BE66E8350D1
:100AD000800B01E0010EE66EA1D8E552E552E55229
:100AE000E552839A958A838C959C1BD0010EE66E05
:100AF0008150020B01E0010EE66E8150010BE66EA3
:100B00008350800B01E0010EE66ED8D8E552E55225
:100B1000E552E552839C958C838895980001CA6BB9
:100B200000D0E55200EE0DF00E0EE80403E3E5CF31
:100B3000EDFFFBD700EE0FF0020EE80403E3E5CF74
:100B4000EDFFFBD7E5CFFAFFE5CFF4FFE5CFF3FFED
:100B5000E5CFF5FFE5CFF7FFE5CFF6FFE5CFEAFFFD
:100B6000E5CFE9FFE5CFDAFFE550E5CFE0FFE5CFE0
:100B7000D8FF10000001865100D01200D9CFE6FF47
:100B8000E1CFD9FFCCC0CBF0CDC0CCF0FE0EDBCF97
:100B9000CDF00001CD0508E1CC51CD5D05E1CB5193
:100BA00003E10001330E896FCFC0CEF0D0C0CFF08B
:100BB000FD0EDBCFD0F00001D00508E1CF51D05DB4
:100BC00005E1CE5103E10001360E896FD2C0D1F0AC
:100BD000D3C0D2F0FC0EDBCFD3F00001D30508E187
:100BE000D251D35D05E1D15103E10001390E896F86
:100BF000D5C0D4F0D6C0D5F0FB0EDBCFD6F00001C7
:100C0000D60508E1D551D65D05E1D45103E10001D7
:100C1000230E896FE552E7CFD9FF1200D9CFE6FF47
:100C2000E1CFD9FFD8C0D7F0D9C0D8F0FE0EDBCFC6
:100C3000D9F00001D90508E1D851D95D05E1D751B6
:100C400003E10001320E896FDBC0DAF0DCC0DBF0BB
:100C5000FD0EDBCFDCF00001DC0508E1DB51DC5DE3
:100C600005E1DA5103E10001350E896FDEC0DDF0E8
:100C7000DFC0DEF0FC0EDBCFDFF00001DF0508E1B6
:100C8000DE51DF5D05E1DD5103E10001380E896FC2
:100C9000E1C0E0F0E2C0E1F0FB0EDBCFE2F00001EA
:100CA000E20508E1E151E25D05E1E05103E1000107
:100CB000300E896FE552E7CFD9FF1200D9CFE6FF9A
:100CC000E1CFD9FFE4C0E3F0E5C0E4F0FE0EDBCFF6
:100CD000E5F00001E50508E1E451E55D05E1E351DA
:100CE00003E10001310E896FE7C0E6F0E8C0E7F0EC
:100CF000FD0EDBCFE8F00001E80508E1E751E85D13
:100D000005E1E65103E10001340E896FEAC0E9F024
:100D1000EBC0EAF0FC0EDBCFEBF00001EB0508E1E5
:100D2000EA51EB5D05E1E95103E10001370E896FFE
:100D3000EDC0ECF0EEC0EDF0FB0EDBCFEEF000010D
:100D4000EE0508E1ED51EE5D05E1EC5103E1000136
:0C0D50002A0E896FE552E7CFD9FF120090
:040D5C00D9CFE6FF06
:100D6000E1CFD9FF8390FE0EDB50E8B08384E8A08A
:100D70008394FD0EDB50C96E9EA6FED783809E969F
:100D8000E552E7CFD9FF1200D9CFE6FFE1CFD9FF77
:100D9000E652FD0EDBCFF3FFF338E842F80BF36EBB
:100DA000FD0EF3CFDBFFFA0EDBCFF6FFFB0EDBCF42
:100DB000F7FFFC0EDBCFF8FF0800F5506EE0DF6AAE
:100DC000080EDF5C55E21A0E056E120E066E000E5E
:100DD000076EFA0EDBCFF6FFFB0EDBCFF7FFFC0E44
:100DE000DBCFF8FF0800F5CF08F0096A0A6A08AE01
:100DF00002D009680A68030ED890083609360A3608
:100E0000E806FAE105500824026E06500920036E38
:100E100007500A20046EDFCF0BF00C6A0D6A0250F7
:100E20000B24F36E03500C20F46E04500D20F86E6A
:100E3000F4CFF7FFF3CFF6FF0800F550E66EFE0E95
:100E4000DB50800DF3CF00F0F4CF01F0000E002650
:100E5000080E0122FD0EDB50DF240F010024E96E95
:100E6000000E0120EA6EE552E750EF6EDF2AA8D7A8
:100E7000080E006EFD0EDBCFE7FF0050E726FD0EEB
:100E8000E7CFDBFFD950FA0FE96EFF0EDA20EA6EEA
:100E9000EE2A000EEE22EE2286D7E552E552E7CF8B
:100EA000D9FF1200D9CFE6FFE1CFD9FFE652FD0E00
:100EB000DBCFF3FFF338E842F80BF36EFD0EF3CF10
:100EC000DBFFFB0EDBCFE9FFFC0EDBCFEAFFEF50D1
:100ED00065E0DF6A080EDF5C51E21A0E056E120E45
:100EE000066E000E076EFB0EDBCFE9FFFC0EDBCFBC
:100EF000EAFFEFCF08F0096A0A6A08AE02D0096873
:100F00000A68030ED890083609360A36E806FAE170
:100F100005500824026E06500920036E07500A206F
:100F2000046EDFCF0BF00C6A0D6A02500B24F36ED7
:100F300003500C20F46E04500D20F86EF4CFF7FF30
:100F4000F3CFF6FF0800F550E66EFE0EDB50800D85
:100F5000F3CF00F0F4CF01F0000E0026080E0122BE
:100F6000FD0EDB50DF240F010024E96E000E01208E
:100F7000EA6EE552E750EF6EDF2AACD7080E006E3E
:100F8000FD0EDBCFE7FF0050E726FD0EE7CFDBFFCE
:100F9000FB0EDB2AFC0E01E3DB2A93D7E552E55278
:100FA000E7CFD9FF1200A00EE66EE66AD7DEE55263
:100FB000E552AE0EE66EE66AD1DEE552E552C00EAF
:100FC000E66EE66ACBDEE552E552A20EE66EE66A12
:100FD000C5DEE552E5522F0EE66EE66ABFDEE5524B
:100FE000E552200EE66EE66AB9DEE552E552810E64
:100FF000E66EE66AB3DEE552E5523F0EE66EE66A5D
:10100000ADDEE552E5521200E66A020EE66E000E13
:10101000E66E080EE66EDCD8E552E552E552E55282
:101020001200D9CFE6FFE1CFD9FFFA0EDBCFE6FF02
:10103000FB0EDBCFE6FFFC0EDBCFE6FFFD0EDBCFCA
:10104000E6FFFE0EDBCFE6FF9FDE006E050EE15EE3
:101050000050E552E7CFD9FF1200D9CFE6FFE1CF2C
:10106000D9FFFB0EDBCFE6FFFC0EDBCFE6FFFD0E6C
:10107000DBCFE6FFFE0EDBCFE6FF14DFE552E552E5
:10108000E552E552E552E7CFD9FF1200D9CFE6FF8E
:10109000E1CFD9FF020EE126AE0EE66EE66A5EDE15
:1010A000E552E552DF6A040EDF5C40E2B00EDF2459
:1010B000E66EE66A53DEE552E552100EE66EE66A2B
:1010C0004DDEE552E552100EE66EE66A47DEE55269
:1010D000E552010EDB6ADB50006E016AD8900150C8
:1010E00004E6800E005C000E01581EE2030ED8805C
:1010F000DF54800DF3CF00F0F4CF01F0000E002696
:10110000080E0122010EDB500F010024E96E000ED3
:101110000120EA6EEF50E66E010EE66E1FDEE5522C
:10112000E552010EDB2AD7D7DF2ABDD7AF0EE66E18
:10113000E66A14DEE552E552020EE15C02E2E16A83
:10114000E552E16EE552E7CFD9FF1200D9CFE6FFB5
:10115000E1CFD9FFE65289C0DFFF0001896BDF5084
:1011600000D0E552E552E7CFD9FF1200D9CFE6FF14
:10117000E1CFD9FFF90EDBCF00F0FA0EDBCF01F0A3
:10118000013404E200500008000E01541DE2FB0E81
:10119000DBCFE9FFDB2AFC0EDBCFEAFF01E3DB2A32
:1011A000EF50E66EFD0EDBCFE9FFDB2AFE0EDBCF54
:1011B000EAFF01E3DB2AE552E750EF6EF90EDB06AA
:1011C000FA0E01E2DB06D6D7E552E7CFD9FF1200CF
:1011D000D9CFE6FFE1CFD9FFFB0EDBCF00F0FC0E4D
:1011E000DBCF01F0013404E200500008000E01548E
:1011F00010E2FD0EDBCFE9FFDB2AFE0EDBCFEAFFBC
:1012000001E3DB2AEF6AFB0EDB06FC0E01E2DB06E4
:0A121000E3D7E552E7CFD9FF120043
:06121A00000000000000CE
:1012200000000055555555555555FF00FF00FF006E
:10123000FF0000FF00FF00FF00FF00000042663CCF
:101240001800FF818181818181FF00180C183060B6
:101250000000000000000000000000102844FE0014
:101260000000000044380000000000004438827C88
:1012700000000010207E201000000008047E0408FA
:101280000000000E3A2A3A0E0000004090A4904060
:101290000000000804081C2000000010307E7E3092
:1012A000100000183C7E18181800001818187E7ED0
:1012B0000C0800080C7E7E0C0800000804020C30AC
:1012C0004000004224181824420000022404042490
:1012D000020000042202022204003C664242424212
:1012E00042424242424242427E003C7E7E7E7E7EBE
:1012F0007E7E7E7E7E7E7E7E7E0000067E606C7CB4
:101300000000004242427E7E7E003C664242427EB7
:101310007E7E002A282E203E0000000000000000F3
:10132000000000000000F2000000000000E000E00B
:101330000000000024FE24FE240000002454FE547B
:101340004800000062640813230000006C92AA4465
:101350000A00000000A0C000000000384482000025
:1013600000000000008244380000000028107C10BB
:1013700028000010107C101000000000000A0C0073
:101380000000001010101010000000000606000001
:1013900000000004081020400000007C8A92A27C1B
:1013A0000000000042FE020000000042868A9262B5
:1013B0000000008482A2D28C000000182848FE0899
:1013C000000000E4A2A2A29C0000003C5292920CF9
:1013D000000000808E90A0C00000006C9292926C81
:1013E0000000006092929478000000006C6C000095
:1013F000000000006A6C0000000000001028448219
:101400000000002828282828000000824428100016
:1014100000000040808A90600000004C929E827C18
:101420000000007E8888887E000000FE9292926C08
:101430000000007C82828244000000FE82828438A8
:10144000000000FE92929282000000FE9090908038
:101450000000007C8292925E000000FE101010FEE0
:101460000000000082FE8200000000040282FC8076
:10147000000000FE10284482000000FE020202026A
:10148000000000FE403040FE000000FE201004FE80
:101490000000007C8282827C000000FE90909060C0
:1014A0000000007C828A847A000000FE909894629A
:1014B000000000629292928C0000008080FE80808A
:1014C000000000FC020202FC000000F8040204F824
:1014D000000000FC021C02FC000000C6281028C608
:1014E000000000E0100E10E0000000868A92A2C208
:1014F0000000000000FE828200000040201008046E
:10150000000000008282FE00000000204080402099
:1015100000000002020202020000000080402000E1
:10152000000000042A2A2A1E000000FE1222221EA9
:101530000000001C222222040000001C222212FEB5
:101540000000001C2A2A2A18000000107E9080400B
:10155000000000304A4A4A4A7C0000FE1020202049
:101560001E00000022BE0200000000040222BC0097
:10157000000000FE081422000000000082FE0200AD
:101580000000003E2018201E0000003E1020201EFB
:101590000000001C2222221C0000003E4848483067
:1015A000000000609090FE010000003E102020101E
:1015B0000000003A2A2A2A2E00000020207E202047
:1015C0000000001E0202021E00000018040204189F
:1015D0000000001E0204021E000000221408142253
:1015E000000000300A0A0A3C00000022262A3222AB
:1015F00000000000106C82000000000000FE0000EF
:1016000000000000826C1000000000102010081084
:0A1610000000001038541010000014
:06161A001E0EF66E000E2C
:10162000F76E000EF86E00010900F550F46F090026
:10163000F550F56F03E1F46701D03DD00900F55096
:10164000EF6F0900F550F06F0900F550F16F0900D8
:101650000900F550E96E0900F550EA6E090009002D
:101660000900F550F26F0900F550F36F0900090009
:10167000F6CFF6F0F7CFF7F0F8CFF8F0EFC0F6FFBF
:10168000F0C0F7FFF1C0F8FF0001F25302E1F3539D
:1016900007E00900F550EE6EF207F8E2F307F9D71C
:1016A000F6C0F6FFF7C0F7FFF8C0F8FF0001F40737
:0816B000000EF55BBFD712002C
:0816B80031203D20534156454D
:1016C00044204E554D310032203D20534156454473
:1016D000204E554D320033203D204B45595041445A
:1016E000202020200034203D2052454449414C20F8
:1016F000202020004469616C696E672E2E2E202008
:1017000020200031203D2053415645204D4F444577
:10171000200032203D204449414C204D4F4445207B
:101720000031203D205341564520315354202300A1
:1017300032203D205341564520324E442023005351
:091740006176696E672E2E2E0001
:06174A00800EF36E00EEBC
:1017500000F00F0E01D81200EA6002D0EE6AFCD74A
:0A176000F350E9601200EE6AFCD7B6
:06176A001EEE00F02EEE61
:1017700000F0F86A0F9C0DEC0BF003EC00F0C3ECEA
:061780000BF0FBD7120084
:0A178600E5EC03F057EC04F01CEC56
:0617900000F0FDD712007D
:0A1796000000000000010000000048
:1017A0000000000000000000000000000000000039
:0817B000000000000000000031
:0817B800000000000000000029
:1017C000000040464C52575D62666B6F7275787AC6
:1017D0007B7C7C7C7B7A7875726F6B66625D57521E
:1017E0004C46403A352F29241F1A16120E0B0907B2
:1017F000050504050507090B0E12161A1F24292FCB
:03180000353A0076
:020000040030CA
:0100010008F6
:0100020018E5
:010003001EDE
:010005008179
:010006008079
:00000001FF
