:020000040000FA
:06000000BBEF0CF0120042
:020006001200E6
:060008006EEF07F012008C
:02000E003A00B6
:020010002E00C0
:0400120000000000EA
:0600180093EF07F0120057
:02001E000100DF
:0C00200012000000AE0000000400000010
:04002C00D9CFE6FF43
:10003000E1CFD9FF350EE126030EDB6A040EDB6A41
:10004000050EDB6A060EDB6A070EDB6A080EDB6A4A
:10005000090EDB6A0A0EDB6A0B0EDB6A0C0EDB6A2A
:100060000D0EDB6A0E0EDB6A0F0EDB6A100EDB6A0A
:10007000110EDB6A120EDB6A130EDB6A140EDB6AEA
:10008000150EDB6A160EDB6A170EDB6A180EDB6ACA
:10009000190EDB6A1A0EDB6A1B0EDB6A1C0EDB6AAA
:1000A0001D0EDB6A1E0EDB6A1F0EDB6A200EDB6A8A
:1000B000210EDB6A220EDB6A230EDB6A240EDB6A6A
:1000C000250EDB6A260EDB6A270EDB6A280EDB6A4A
:1000D000290EDB6A2A0EDB6A2B0EDB6A2C0EDB6A2A
:1000E0002D0EDB6A2E0EDB6A2F0EDB6A300EDB6A0A
:1000F000310EDB6A320EDB6A330EDB6A340EDB6AEA
:10010000020EDB6ADBCF00F0120EE76E0018E8AEDD
:1001100002D0E73402D0E750005C76E2020EDBCF7B
:1001200000F000C01FF0060E246E3EEC0CF01B50D9
:10013000010BE76E030EE7CFDBFFDB50E8B0C284B4
:10014000E8A0C294020EDBCF00F000C01FF0060E44
:10015000246E3EEC0CF01B50020BE76E030EE7CF53
:10016000DBFFDB407F0BE76E030EE7CFDBFFDB50EF
:10017000E8B0C286E8A0C296020EDBCF00F000C055
:100180001FF0060E246E3EEC0CF01B50040BE76EC5
:10019000030EE7CFDBFFDB40E8403F0BE76E030ECB
:1001A000E7CFDBFFDB50E8B0C288E8A0C298C2828C
:1001B000C2B2FED7C450DE6EDD6AD950050F006EA4
:1001C000DACF01F0020EDBCF02F0036A02BE036851
:1001D000D8900236033600500224E96E0150032005
:1001E000EA6EDECFEEFFDDCFEDFF020EDB5004E066
:1001F000020EDB50060805E10001B05101E1FCD719
:10020000B06B020EDB2A7ED7020EDB6ADBCF00F07A
:10021000060EE76E0018E8AE02D0E73402D0E750D1
:10022000005C76E2D950050F0A6EDACF0BF0020EB1
:10023000DBCF0CF00D6A0CBE0D68D8900C360D3675
:100240000A500C24E96E0B500D20EA6EEECF08F038
:10025000EFCF09F0D950050F0E6EDACF0FF0020E76
:10026000DB50060F106E116A10BE1168D890103660
:1002700011360E501024E96E0F501120EA6E08500E
:10028000EE24066E0950EE20076ED950050F126E4F
:10029000DACF13F0020EDB500C0F146E156A14BE89
:1002A0001568D8901436153612501424E96E135080
:1002B0001520EA6E0650EE24046E0750EE20056EFF
:1002C000030E236E246A04C01EF005C01FF058EC14
:1002D0000CF01EC004F01FC005F0D950290F006EAD
:1002E000DACF01F0020EDBCF02F0036A02BE036830
:1002F000D8900236033600500224E96E01500320E4
:10030000EA6E04C0EEFF05C0EDFF020EDB2A7ED7C9
:10031000290EDBCFE6FF2A0EDBCFE6FFE66A010EF1
:10032000E66EC6D8E552E552E552E5522B0EDBCF1C
:10033000E6FF2C0EDBCFE6FF050EE66E010EE66E45
:10034000B7D8E552E552E552E5522D0EDBCFE6FF78
:100350002E0EDBCFE6FF0A0EE66E010EE66EA8D883
:10036000E552E552E552E5522F0EDBCFE6FF300EA7
:10037000DBCFE6FFE66A020EE66E9AD8E552E5525A
:10038000E552E552310EDBCFE6FF320EDBCFE6FF62
:10039000050EE66E020EE66E8BD8E552E552E5528A
:1003A000E552330EDBCFE6FF340EDBCFE6FF0A0E5D
:1003B000E66E020EE66E7CD8E552E552E552E55255
:1003C000D950290FE66E000EDA20E66E1FD9E552ED
:1003D000E552E76E040EE7CFDBFFD950290F026E1E
:1003E000DACF03F0040EDBCF04F0056A04BE056823
:1003F000D8900436053602500424E96E03500520D7
:10040000EA6EEECF00F0EFCF01F0D890015004E695
:10041000250E005C000E015802E2040EDB68040E9B
:10042000DB50006E350EE15C03E200D0E16AE5527C
:10043000E16E0050E552E7CFD9FF1200D9CFE6FFB9
:10044000E1CFD9FF020EE126809C0001B05101E10D
:10045000FCD7B06B808CDE6ADD6A82A005D0DF2A13
:10046000010E01E3DB2AF9D7DECFE6FFDDCFE6FFA1
:10047000050EE66EE66A1CD8E552E552E552E552F5
:10048000DECF00F0DDCF01F0013404E20050E808D7
:10049000030E015402E2828201D08292020EE15CDC
:1004A00002E2E16AE552E16EE552E7CFD9FF1200C0
:1004B000D9CFE6FFE1CFD9FF050EE126FB0EDBCF5A
:1004C00000F0FC0EDBCF01F0E80E236E030E246E6D
:1004D00000C01EF001C01FF058EC0CF01EC000F070
:1004E0001FC001F0300E0024DF6ED950FB0FE96E03
:1004F000FF0EDA20EA6EE80E236E030E246EEECFB6
:100500001EF0EDCF1FF058EC0CF01AC0EEFF1BC030
:10051000EDFFFB0EDBCF00F0FC0EDBCF01F0640E35
:10052000236E246A00C01EF001C01FF058EC0CF0CE
:100530001EC000F01FC001F0300E0026000E012288
:10054000010E00C0DBFFD950FB0FE96EFF0EDA2071
:10055000EA6E640E236E246AEECF1EF0EDCF1FF01C
:1005600058EC0CF01AC0EEFF1BC0EDFFFB0EDBCF0A
:1005700000F0FC0EDBCF01F00A0E236E246A00C0EF
:100580001EF001C01FF058EC0CF01EC000F01FC0A0
:1005900001F0300E0026000E0122020E00C0DBFF2B
:1005A000FB0EDBCF00F0FC0EDBCF01F00A0E236E5A
:1005B000246A00C01EF001C01FF058EC0CF01AC0F5
:1005C00000F01BC001F0300E0026000E0122030EC9
:1005D00000C0DBFF040EDB6AD9CFE6FFDACFE6FF0F
:1005E000FD0EDBCFE6FFFE0EDBCFE6FF24EC06F0D0
:1005F000E552E552E552E552050EE15C02E2E16AA0
:10060000E552E16EE552E7CFD9FF1200D9CFE6FF00
:10061000E1CFD9FF040EE126FD0EDBCFE9FFFE0E90
:10062000DBCFEAFF010EEECFDBFF020EEDCFDBFFEB
:10063000030EDB6A010EDF6EDFCF00F0060EE76E01
:100640000018E8AE02D0E73402D0E750005C40E288
:10065000DFCF02F0036A02BE0368D8900236033689
:10066000FD0EDB500224E96EFE0EDB500320EA6E25
:10067000EECF00F0EFCF01F0010EDBCF04F0020E61
:10068000DBCF05F005500118E8AE02D0013404D0EC
:100690000050045C0150055819E2DFCF00F0016AF8
:1006A00000BE0168D89000360136FD0EDB500024F4
:1006B000E96EFE0EDB500120EA6E010EEECFDBFF8D
:1006C000020EEDCFDBFF030EDFCFDBFFDF2AB4D757
:1006D000030EDB50006E040EE15C03E200D0E16A21
:1006E000E552E16E0050E552E7CFD9FF1200D9CFB5
:1006F000E6FFE1CFD9FFFE0EDBCFE6FF0C0EE66E84
:10070000030EE66E53D8E552E552E552100EE66E42
:10071000000EE66E000EE66E0B0EE66E030EE66E43
:1007200008EC06F0006E050EE15E0050FD0EDBCF1A
:10073000E6FF0A0EE66E030EE66E38D8E552E55285
:10074000E552FC0EDBCFE6FF090EE66E030EE66E09
:100750002DD8E552E552E5520E0EE66E000EE66E1D
:10076000000EE66E080EE66E030EE66E08EC06F06E
:10077000006E050EE15E0050FB0EDBCFE6FF070EBC
:10078000E66E030EE66E12D8E552E552E552FA0E19
:10079000DBCFE6FF060EE66E030EE66E07D8E552E7
:1007A000E552E552E552E7CFD9FF1200D9CFE6FF77
:1007B000E1CFD9FF020EE126300E006EFC0EDBCF3A
:1007C000E7FF0050E726FC0EE7CFDBFFDB50DF6ED4
:1007D000010EDB6AD9CFE6FFDACFE6FFFD0EDBCFF5
:1007E000E6FFFE0EDBCFE6FF24EC06F0E552E55215
:1007F000E552E552020EE15C02E2E16AE552E16E89
:10080000E552E7CFD9FF1200D9CFE6FFE1CFD9FFFC
:10081000300E006EFA0EDBCFE7FF0050E726FA0E2F
:10082000E7CFDBFFFA0EDBCFE6FF4DD8E552300E07
:10083000006EFB0EDBCFE7FF0050E726FB0EE7CF95
:10084000DBFFFB0EDBCFE6FF3ED8E5523A0EE66E4D
:100850003AD8E552300E006EFC0EDBCFE7FF0050B9
:10086000E726FC0EE7CFDBFFFC0EDBCFE6FF2BD845
:10087000E552300E006EFD0EDBCFE7FF0050E7269D
:10088000FD0EE7CFDBFFFD0EDBCFE6FF1CD8E55208
:100890002E0EE66E18D8E552300E006EFE0EDBCF3F
:1008A000E7FF0050E726FE0EE7CFDBFFFE0EDBCFB3
:1008B000E6FF09D8E5520D0EE66E05D8E552E55281
:1008C000E7CFD9FF1200D9CFE6FFE1CFD9FFACA225
:1008D000FED7FE0EDB50AD6EE552E7CFD9FF12001A
:1008E000D9CFE6FFE1CFD9FFE652AE50DF6EDF5041
:1008F00000D0E552E552E7CFD9FF1200D9CFE6FF8D
:10090000E1CFD9FF020EE126DF6A9DEC06F0E76E2B
:10091000010EE7CFDBFFDB5001E1F7D7010EDB5023
:10092000DF5C01E1FBD7010EDB503DEC06F0010E70
:10093000DB50DF6EF3D7020EE15C02E2E16AE552C2
:0A094000E16EE552E7CFD9FF120087
:06094A00D9CFE6FFE1CF6A
:10095000D9FF8390FE0EDB50E8B08384E8A0839437
:10096000FD0EDB50C96E9EA6FED783809E96E55293
:10097000E7CFD9FF1200D9CFE6FFE1CFD9FFE6528A
:10098000FD0EDBCFF3FFF338E842F80BF36EFD0EFC
:10099000F3CFDBFFFA0EDBCFF6FFFB0EDBCFF7FF6B
:1009A000FC0EDBCFF8FF0800F5506EE0DF6A080EA2
:1009B000DF5C55E2880E056E120E066E000E076EA5
:1009C000FA0EDBCFF6FFFB0EDBCFF7FFFC0EDBCF23
:1009D000F8FF0800F5CF08F0096A0A6A08AE02D0ED
:1009E00009680A68030ED890083609360A36E80600
:1009F000FAE105500824026E06500920036E0750E4
:100A00000A20046EDFCF0BF00C6A0D6A02500B2433
:100A1000F36E03500C20F46E04500D20F86EF4CFEA
:100A2000F7FFF3CFF6FF0800F550E66EFE0EDB5041
:100A3000800DF3CF00F0F4CF01F0000E0026080E79
:100A40000122FD0EDB50DF240F010024E96E000EB1
:100A50000120EA6EE552E750EF6EDF2AA8D7080EB4
:100A6000006EFD0EDBCFE7FF0050E726FD0EE7CF5F
:100A7000DBFFD950FA0FE96EFF0EDA20EA6EEE2A9C
:100A8000000EEE22EE2286D7E552E552E7CFD9FFDF
:100A90001200D9CFE6FFE1CFD9FFE652FD0EDBCF42
:100AA000F3FFF338E842F80BF36EFD0EF3CFDBFFF4
:100AB000FB0EDBCFE9FFFC0EDBCFEAFFEF5065E07A
:100AC000DF6A080EDF5C51E2880E056E120E066EBC
:100AD000000E076EFB0EDBCFE9FFFC0EDBCFEAFF5B
:100AE000EFCF08F0096A0A6A08AE02D009680A68FE
:100AF000030ED890083609360A36E806FAE10550A2
:100B00000824026E06500920036E07500A20046E66
:100B1000DFCF0BF00C6A0D6A02500B24F36E03500A
:100B20000C20F46E04500D20F86EF4CFF7FFF3CFD5
:100B3000F6FF0800F550E66EFE0EDB50800DF3CF99
:100B400000F0F4CF01F0000E0026080E0122FD0E89
:100B5000DB50DF240F010024E96E000E0120EA6E55
:100B6000E552E750EF6EDF2AACD7080E006EFD0E9F
:100B7000DBCFE7FF0050E726FD0EE7CFDBFFFB0EE4
:100B8000DB2AFC0E01E3DB2A93D7E552E552E7CFDF
:100B9000D9FF1200A00EE66EE66AD7DEE552E552F6
:100BA000AE0EE66EE66AD1DEE552E552C00EE66EA6
:100BB000E66ACBDEE552E552A20EE66EE66AC5DED7
:100BC000E552E5522F0EE66EE66ABFDEE552E552CB
:100BD000200EE66EE66AB9DEE552E552810EE66E5B
:100BE000E66AB3DEE552E5523F0EE66EE66AADDE3A
:100BF000E552E5521200E66A020EE66E000EE66E5F
:100C0000080EE66EDCD8E552E552E552E5521200D8
:100C1000D9CFE6FFE1CFD9FFFA0EDBCFE6FFFB0E1F
:100C2000DBCFE6FFFC0EDBCFE6FFFD0EDBCFE6FF02
:100C3000FE0EDBCFE6FF9FDE006E050EE15E00508C
:100C4000E552E7CFD9FF1200D9CFE6FFE1CFD9FFB8
:100C5000FB0EDBCFE6FFFC0EDBCFE6FFFD0EDBCFAE
:100C6000E6FFFE0EDBCFE6FF14DFE552E552E5526C
:100C7000E552E552E7CFD9FF1200D9CFE6FFE1CF29
:100C8000D9FF020EE126AE0EE66EE66A5EDEE552A2
:100C9000E552DF6A040EDF5C40E2B00EDF24E66E50
:100CA000E66A53DEE552E552100EE66EE66A4DDE68
:100CB000E552E552100EE66EE66A47DEE552E55271
:100CC000010EDB6ADB50006E016AD890015004E629
:100CD000800E005C000E01581EE2030ED880DF5427
:100CE000800DF3CF00F0F4CF01F0000E0026080EC7
:100CF0000122010EDB500F010024E96E000E0120DD
:100D0000EA6EEF50E66E010EE66E1FDEE552E5522A
:100D1000010EDB2AD7D7DF2ABDD7AF0EE66EE66A13
:100D200014DEE552E552020EE15C02E2E16AE552B0
:100D3000E16EE552E7CFD9FF1200D9CFE6FFE1CF50
:100D4000D9FFE652AFC0DFFF0001AF6BDF5000D02C
:100D5000E552E552E7CFD9FF1200D9CFE6FFE1CF48
:100D6000D9FFF90EDBCF00F0FA0EDBCF01F0013432
:100D700004E200500008000E01541DE2FB0EDBCF20
:100D8000E9FFDB2AFC0EDBCFEAFF01E3DB2AEF50B1
:100D9000E66EFD0EDBCFE9FFDB2AFE0EDBCFEAFFBE
:100DA00001E3DB2AE552E750EF6EF90EDB06FA0E9F
:100DB00001E2DB06D6D7E552E7CFD9FF1200D9CF43
:100DC000E6FFE1CFD9FFFB0EDBCF00F0FC0EDBCF5F
:100DD00001F0013404E200500008000E015410E25A
:100DE000FD0EDBCFE9FFDB2AFE0EDBCFEAFF01E3DE
:100DF000DB2AEF6AFB0EDB06FC0E01E2DB06E3D723
:080E0000E552E7CFD9FF120013
:080E080003D82ED8CAEF05F053
:100E1000D38CD38AD3889B8C958C958A9588938420
:100E200093829380958E839C839A839894928292E6
:100E3000949482949698D58ED59CD59AD596D5843F
:100E4000D582D590FE0ED76EC00ED66EF194F28A82
:100E50000C0EBD6ECB68800EBE6ED08EF28CF28E04
:100E6000F28C929C94801200C69A949A94889496DC
:100E700095949592959083828380C688C79CC696E8
:100E8000C694C692C680C68A9D969E96120092848B
:100E9000080EC16EC09AC098C086C094C082C0902F
:100EA000C09EC2801200948E949CB06A330EAF6EC6
:100EB000AC94B896AC98AB8EAC8AAB881200C69A4C
:100EC000948A9486C79CC79E130EC86E280EC66E61
:100ED000C56A9E969D86C68A9D801200DACFE4FF81
:100EE000E2CFDAFFE6529E92E552E5CFDAFF11003B
:100EF000CD8ECD8ACD88CD96CD92CD80FC0ECF6E95
:100F0000180ECE6E9F809D801200DACFE4FFE2CFF4
:100F1000DAFFE6529E90FC0ECF6E180ECE6EE552B2
:100F2000E5CFDAFF1100D8CFE4FFE0CFE4FFE46EB5
:100F3000DACFE4FFE2CFDAFFE9CFE4FFEACFE4FF64
:100F4000F6CFE4FFF7CFE4FFF5CFE4FFF3CFE4FF04
:100F5000F4CFE4FFFACFE4FF00EE16F0100EE80441
:100F600003E3EECFE4FFFBD700EE00F0160EE8043B
:100F700003E3EECFE4FFFBD7E652FE0ED76EC00EC2
:100F8000D66EF2940001AE2B140EAE5D03E1AE6B93
:100F9000010EB06FB12BB151020A22E0030A04E046
:100FA0008150040B3AE038D08150040B01E0010E6F
:100FB000E66E8150020B01E0010EE66E8150010BDE
:100FC000E66E8350800B01E0010EE66E6DD8E552AF
:100FD000E552E552E55283989588838A959A37D0F1
:100FE0008150040B01E0010EE66E8150020B01E01E
:100FF000010EE66E8150010BE66E8350800B01E01E
:10100000010EE66EA1D8E552E552E552E552839A0B
:10101000958A838C959C1BD0010EE66E8150020B45
:1010200001E0010EE66E8150010BE66E8350800BED
:1010300001E0010EE66ED8D8E552E552E552E552E0
:10104000839C958C838895980001B16B00D0E55204
:1010500000EE15F0160EE80403E3E5CFEDFFFBD735
:1010600000EE25F0100EE80403E3E5CFEDFFFBD71B
:10107000E5CFFAFFE5CFF4FFE5CFF3FFE5CFF5FFCE
:10108000E5CFF7FFE5CFF6FFE5CFEAFFE5CFE9FFD4
:10109000E5CFDAFFE550E5CFE0FFE5CFD8FF100060
:1010A0000001AE5100D01200D9CFE6FFE1CFD9FF49
:1010B00081C080F082C081F0FE0EDBCF82F00001A3
:1010C000820508E18151825D05E1805103E1000163
:1010D000330EAF6F84C083F085C084F0FD0EDBCF8C
:1010E00085F00001850508E18451855D05E18351A6
:1010F00003E10001360EAF6F87C086F088C087F02D
:10110000FC0EDBCF88F00001880508E18751885D7F
:1011100005E1865103E10001390EAF6F8AC089F005
:101120008BC08AF0FB0EDBCF8BF000018B0508E152
:101130008A518B5D05E1895103E10001230EAF6FF8
:10114000E552E7CFD9FF1200D9CFE6FFE1CFD9FFB3
:101150008DC08CF08EC08DF0FE0EDBCF8EF00001C6
:101160008E0508E18D518E5D05E18C5103E1000192
:10117000320EAF6F90C08FF091C090F0FD0EDBCFBC
:1011800091F00001910508E19051915D05E18F51C9
:1011900003E10001350EAF6F93C092F094C093F05D
:1011A000FC0EDBCF94F00001940508E19351945DAF
:1011B00005E1925103E10001380EAF6F96C095F042
:1011C00097C096F0FB0EDBCF97F00001970508E182
:1011D0009651975D05E1955103E10001300EAF6F27
:1011E000E552E7CFD9FF1200D9CFE6FFE1CFD9FF13
:1011F00099C098F09AC099F0FE0EDBCF9AF00001EA
:101200009A0508E199519A5D05E1985103E10001C1
:10121000310EAF6F9CC09BF09DC09CF0FD0EDBCFEC
:101220009DF000019D0508E19C519D5D05E19B51EC
:1012300003E10001340EAF6F9FC09EF0A0C09FF08D
:10124000FC0EDBCFA0F00001A00508E19F51A05DDE
:1012500005E19E5103E10001370EAF6FA2C0A1F07E
:10126000A3C0A2F0FB0EDBCFA3F00001A30508E1B1
:10127000A251A35D05E1A15103E100012A0EAF6F68
:08128000E552E7CFD9FF12008F
:0812880000000000000000005E
:101290000055555555555555FF00FF00FF00FF00FF
:1012A00000FF00FF00FF00FF00000042663C180046
:1012B000FF818181818181FF00180C18306000005E
:1012C000000000000000000000102844FE000000A4
:1012D000000044380000000000004438827C000018
:1012E0000010207E201000000008047E040800008A
:1012F000000E3A2A3A0E0000004090A490400000F0
:10130000000804081C2000000010307E7E30100011
:1013100000183C7E18181800001818187E7E0C085B
:1013200000080C7E7E0C0800000804020C3040000F
:10133000004224181824420000022404042402005D
:1013400000042202022204003C664242424242421F
:101350004242424242427E003C7E7E7E7E7E7E7ED5
:101360007E7E7E7E7E7E7E0000067E606C7C00003F
:10137000004242427E7E7E003C664242427E7E7E4B
:10138000002A282E203E000000000000000000007F
:1013900000000000F2000000000000E000E000009B
:1013A000000024FE24FE240000002454FE544800C3
:1013B000000062640813230000006C92AA440A0033
:1013C000000000A0C00000000038448200000000BF
:1013D0000000008244380000000028107C10280023
:1013E0000010107C101000000000000A0C0000002B
:1013F0000010101010100000000006060000000091
:101400000004081020400000007C8A92A27C0000AA
:10141000000042FE020000000042868A9262000044
:10142000008482A2D28C000000182848FE08000028
:1014300000E4A2A2A29C0000003C5292920C000088
:1014400000808E90A0C00000006C9292926C000010
:10145000006092929478000000006C6C0000000024
:1014600000006A6C000000000000102844820000A8
:1014700000282828282800000082442810000000A6
:101480000040808A90600000004C929E827C0000A8
:10149000007E8888887E000000FE9292926C000098
:1014A000007C82828244000000FE82828438000038
:1014B00000FE92929282000000FE909090800000C8
:1014C000007C8292925E000000FE101010FE000070
:1014D000000082FE8200000000040282FC80000006
:1014E00000FE10284482000000FE020202020000FA
:1014F00000FE403040FE000000FE201004FE000010
:10150000007C8282827C000000FE9090906000004F
:10151000007C828A847A000000FE90989462000029
:1015200000629292928C0000008080FE8080000019
:1015300000FC020202FC000000F8040204F80000B3
:1015400000FC021C02FC000000C6281028C6000097
:1015500000E0100E10E0000000868A92A2C2000097
:10156000000000FE828200000040201008040000FD
:1015700000008282FE000000002040804020000029
:101580000002020202020000000080402000000071
:1015900000042A2A2A1E000000FE1222221E000039
:1015A000001C222222040000001C222212FE000045
:1015B000001C2A2A2A18000000107E90804000009B
:1015C00000304A4A4A4A7C0000FE102020201E00BB
:1015D000000022BE0200000000040222BC00000045
:1015E00000FE081422000000000082FE020000003D
:1015F000003E2018201E0000003E1020201E00008B
:10160000001C2222221C0000003E484848300000F6
:1016100000609090FE010000003E102020100000AD
:10162000003A2A2A2A2E00000020207E20200000D6
:10163000001E0202021E000000180402041800002E
:10164000001E0204021E00000022140814220000E2
:1016500000300A0A0A3C00000022262A322200003A
:101660000000106C82000000000000FE000000007E
:101670000000826C10000000001020100810000014
:081680000010385410100000A6
:08168800D9CFE6FFE1CFD9FF45
:10169000E652DF6A04EC07F0FBEC05F03DEC06F0E7
:1016A00047EC07F0190EE66E190EE66E000EE66EB8
:1016B000E66A030EE66E08EC06F0006E050EE15ECB
:1016C00000501EEC02F016EC00F0DF6EDF50050A51
:1016D0006DE0010A5AE0070A48E0010A35E0030A12
:1016E00022E0010A10E0080EE66E190EE66E000E0A
:1016F000E66EE66A030EE66E08EC06F0006E050E76
:10170000E15E005064D0FC0EE66E180EE66E000E30
:10171000E66EE66A030EE66E08EC06F0006E050E55
:10172000E15E005054D0FE0EE66E180EE66E000E1E
:10173000E66E010EE66E030EE66E08EC06F0006E35
:10174000050EE15E005043D0000EE66E190EE66E07
:10175000000EE66E020EE66E030EE66E08EC06F074
:10176000006E050EE15E005032D0020EE66E190EDC
:10177000E66E000EE66E030EE66EE66E08EC06F010
:10178000006E050EE15E005022D0040EE66E190ECA
:10179000E66E000EE66E040EE66E030EE66E08ECD4
:1017A00006F0006E050EE15E005011D0060EE66EEA
:1017B000190EE66E000EE66E050EE66E030EE66E80
:1017C00008EC06F0006E050EE15E005000D03DEC26
:0E17D00006F068D7E552E552E7CFD9FF1200C8
:0217DE001E0EDD
:1017E000F66E000EF76E000EF86E00010900F5505F
:1017F000A96F0900F550AA6F03E1A96701D03DD098
:101800000900F550A46F0900F550A56F0900F550C7
:10181000A66F09000900F550E96E0900F550EA6E5F
:10182000090009000900F550A76F0900F550A86FDD
:1018300009000900F6CFABF0F7CFACF0F8CFADF070
:10184000A4C0F6FFA5C0F7FFA6C0F8FF0001A7538C
:1018500002E1A85307E00900F550EE6EA707F8E291
:10186000A807F9D7ABC0F6FFACC0F7FFADC0F8FFD3
:0C1870000001A907000EAA5BBFD7120000
:04187C00166A24AE16
:1018800044EF0CF0246C161E1FAE49EF0CF01F6CD9
:10189000161EC9EC0CF01FBE53EF0CF016AE000C78
:1018A0001F6C1B6C000C16BE50EF0CF01788FF0C61
:1018B000166A24AE61EF0CF0236C241EE86A242221
:1018C000161E1FAE69EF0CF01E6C1F1EE86A1F2269
:1018D000161E95EC0CF01FBE79EF0CF016AE000C46
:1018E0001E6C1F1EE86A1F221A6C1B1EE86A1B2250
:0C18F000000C16BE70EF0CF01788FF0C07
:0418FC0053004C0049
:1019000049004400450052002020202020202020B3
:10191000202020202020202000427574746F6E202B
:0A192000746F204C61756E6368005F
:06192A001B6A1A6A100E90
:10193000E76ED8901E361F361A361B3623501A5CB7
:1019400024501B5805E323501A5E24501B5A1E2AAC
:06195000E72EF0D71200A3
:0A195600800EF36E00EE00F00F0E9D
:1019600001D81200EA6002D0EE6AFCD7F350E960B9
:061970001200EE6AFCD734
:0A1976001EEE00F02EEE00F0F86AFD
:10198000179CEFEC0BF003EC00F044EC0BF0FBD7F2
:02199000120043
:0E1992001B6A080EE76ED8901F361B362450D5
:0E19A0001B5C02E31B6E1F2AE72EF7D7120016
:020000040030CA
:0100010008F6
:0100020018E5
:010003001EDE
:010005008179
:010006008079
:00000001FF
